:1002830012063B1205EE12049B75130075140075DC
:10029300150975160075170075180A751900751A72
:1002A30000751B0B7B007A007908120003E50875C3
:1002B300F00A842430FB7D047F01120599E508755B
:1002C300F00A84E5F02430FF1206167F3A12061670
:1002D300E50975F00A842430FF120616E50975F066
:1002E3000A84E5F02430FF1206167F3A120616E55B
:1002F3000A75F00A842430FF120616E50A75F00A1F
:0C03030084E5F02430FF12061602028C84
:10055B00E4FDFCC3ED9FEC9E5015E4FBFA0BBB00D6
:0F056B00010AEB647B4A70F50DBD00010C80E4C2
:01057A00225E
:10057B00C2A08FB0C2A1D2A1D3EF94027480948099
:0E058B0050047F0280027F017E0012055B2279
:09061600D2A08FB0C2A1D2A12232
:040599008F108B1123
:10059D00E512640170047F8080027FC0EF2D14F599
:0A05AD0012FF12057BAF11020616C3
:0604F1008B428A4389449E
:1004F700E4FEAB42AA43A9448E827583001201CD64
:0E050700FFFD3395E04D60061206160E80E4EF
:0105150022C3
:06053A008B458A4689474B
:10054000EF640170047F8080027FC0EF2D14FF12E2
:0B055000057BAB45AA46A9470204F159
:10049B007F3012057B7F057E0012055B7F301205D6
:1004AB007B7F017E0012055B7F3012057B7F301254
:0C04BB00057B7F0112057B7F0C02057B96
:0F05EE00E4FF120516AD0753057FE4FF0205D5A4
:1005D5008F108D1112061F7FD01205B7AF101205AF
:0905E500B7AF111205B70206348C
:020516008F1044
:1005180012061F7FD01205B7AF101205B712061FBB
:100528007FD11205B7C2011204C78F11120634AF6A
:0105380011B1
:01053900229F
:060003008B108A11891226
:1000090012061F7FD01205B7E4FF1205B712061FAB
:100019007FD11205B7D2011204C78F1ED201120473
:10002900C78F1DC2011204C78F1C120634531E7FCD
:10003900E51EC4540F75F00AA4FFE51E540F2FAB3B
:1000490016AA17A9181201FA531D7FE51DC4540FEA
:1000590075F00AA4FFE51D540F2FAB13AA14A915B7
:100069001201FAE51C30E633AB19AA1AA91B740C64
:100079001201FAE51C30E504D2008002C200531CCB
:100089001FE51CC4540F75F00AA4FFE51C540F2F7B
:10009900AB10AA11A9121201FA803EAB19AA1AA92A
:1000A9001B74181201FA531C3FE51CC4540F75F058
:1000B9000AA4FFE51C540F2FAB10AA11A9121201B3
:1000C900FAAB10AA11A9121201B4C3940C7480944A
:0B00D900805004C2008002D200A20090
:0100E40022F9
:10030F008F398C3A8D3B8B3CE53C75F00A84C45495
:10031F00F0FFE53C75F00A84E5F04FF53CAE3AAFDF
:10032F003B7C007D0A12022EEFC4F8540FC868FB05
:10033F00EEC454F048FAAE3AAF3B7C007D0A12028D
:10034F002EEC4AF53AED4BF53BE53975F00A84C4CE
:10035F0054F0FFE53975F00A84E5F04FF539E53DC6
:10036F00640C700943394030020343392012061FD1
:10037F007FD01205B7E4FF1205B7AF3C1205B7AF38
:0C038F003B1205B7AF391205B702063467
:1000E5008B218A22892312061F7FD01205B77F0331
:1000F5001205B712061F7FD11205B7D2011204C728
:10010500AB21AA22A923EF1201FAD2011204C7AB2F
:1001150024AA25A926EF1201FAD2011204C7AB279A
:10012500AA28A929EF1201FAC2011204C7AB2AAA0B
:100135002BA92CEF1201FA120634AB21AA22A9230E
:100145001201B454071201FAAB24AA25A9261201FB
:10015500B4543F1201FAAB24AA25A9261201B4FF13
:10016500C4540F75F00AA4FEEF540F2E1201FAAB1A
:1001750027AA28A9291201B4541F1201FAAB27AAEC
:1001850028A9291201B4FFC4540F75F00AA4FEEF83
:10019500540F2E1201FAAB2AAA2BA92C1201B4FF77
:0F01A500C4540F75F00AA4FEEF540F2E0201FA96
:10039B008F3E8D3F8B40E53F75F00A84C454F0FFD0
:1003AB00E53F75F00A84E5F04FF53FE54075F00A3F
:1003BB0084C454F0FFE54075F00A84E5F04FF54036
:1003CB00E54175F00A84C454F0FFE54175F00A84E9
:1003DB00E5F04FF54112061F7FD01205B77F0312D0
:1003EB0005B7AF3E1205B7AF3F1205B7AF401205C9
:0903FB00B7AF411205B702063448
:08045F008F2D8B2E8A2F8930AE
:10046700E4F53212061F7FD01205B7AF2D1205B77C
:10047700E4F532E532C395315017AB2EAA2FA930D8
:100487008532827583001201CDFF1205B7053280D0
:04049700E202063443
:080404008F338B348A358936F1
:10040C0012061F7FD01205B7AF331205B712061FA5
:10041C007FD11205B7E4F538E53714FFE538C39FF3
:10042C005019D2011204C7AB34AA35A936853882CB
:10043C00758300EF12020C053880DDC2011204C76F
:10044C00AB34AA35A936853882758300EF12020CBD
:03045C0002063461
:05063B00D290D29122D3
:07061F00D290C291C29022AB
:0C05FD00D291D290A2919201C290A20172
:0106090022CE
:1005B700E4FEEEC3940874809480500FEF33929159
:0E05C700D290C290EF25E0FF0E80E70205FD06
:07062600C291D290C29022A4
:07062D00D291D290C290228D
:1004C700E4FFFEEEC39408748094805013D291D257
:1004D70090EF25E0FF309103430701C2900E80E3C0
:0904E70030010302062612062D65
:0104F00022E9
:07063400C291D290D2912285
:0300000002060AEB
:0C060A00787FE4F6D8FD7581470202837A
:1001B400BB010689828A83E0225002E722BBFE0249
:0901C400E32289828A83E493227C
:1001CD00BB010CE58229F582E5833AF583E02250E7
:1001DD0006E92582F8E622BBFE06E92582F8E22231
:0D01ED00E58229F582E5833AF583E493224B
:1001FA00BB010689828A83F0225002F722BBFE01E4
:02020A00F322DD
:10020C00F8BB010DE58229F582E5833AF583E8F028
:10021C00225006E92582C8F622BBFE05E92582C8D4
:02022C00F222BC
:10022E00BC000BBE0029EF8DF084FFADF022E4CCB4
:10023E00F875F008EF2FFFEE33FEEC33FCEE9DEC7D
:10024E00984005FCEE9DFE0FD5F0E9E4CEFD22EDC3
:10025E00F8F5F0EE8420D21CFEADF075F008EF2F0D
:10026E00FFED33FD4007985006D5F0F222C398FDFE
:05027E000FD5F0EA229B
:00000001FF
