:0800BE007F641200C66380FF9D
:1000C600E4FDFCC3ED9FEC9E5015E4FBFA0BBB0070
:0F00D600010AEB647B4A70F50DBD00010C80E45C
:0100E50022F8
:100105009000057580557E001200BEE5821582704F
:09011500021583E582458370EABE
:01011E0022BE
:1000E600900005E4F580FE1200BE6380FF1200C09A
:0E00F600E582158270021583E582458370E570
:0101040022D8
:100062008C088D098F828E83E4F508F509E4F58307
:10007200F582E4F580AF82A80774A0088002C3135A
:10008200D8FC4280E582640645837002B287E5822D
:10009200640745837002B2867F647E001200C6A3A5
:1000A200E5826408458370CA0509E50970020508FE
:0C00B200C3940AE5086480948040B222E8
:040003008F828E83D7
:10000700E58245836054E4F580F9E9C39409748077
:10001700948050177F467E001200C6A8017401081D
:100027008002C333D8FC42800980DFE4F580F9E918
:10003700C394097480948050177F467E001200C6CF
:10004700A8017480088002C313D8FC42800980DFAE
:0A005700E582158270AA158380A6C9
:01006100227C
:10011F001201051200E6E4FDFCFFFE1200627F0AE9
:07012F007E0012000380E9CD
:03000000020136C4
:0C013600787FE4F6D8FD75810902011FF6
:00000001FF
