:10000000020427EC4D6011E8497017ED33EC33041E
:10001000600DE4FCFFFEFD22E933E8330470F802D2
:1000200001B312017E58046009E4CC2481500628F3
:1000300050090201BD2840030201BAC0E0EB4A703A
:1000400044B98006D0E0FB0201A9EF4E701CBD80D0
:1000500008EBFFEAFEE9FD80EBE98DF0A4FEE5F098
:100060000200ECE9CDF9EAFEEBFFEF89F0A4FCE534
:10007000F0CE89F0A42EFFE435F0CD89F0A42DFE5A
:10008000E435F08067EF4E7005BD80D780C3EF8BFD
:10009000F0A4ACF0EE8BF0A42CFCE435F0F8EF8A81
:1000A000F0A42CE5F038FCE433CB8DF0A42CFCE577
:1000B000F03BF8EE8AF0A42CFCE5F038F8E433CFFE
:1000C00089F0A42CFCE5F038CF3400CE89F0A42FC1
:1000D000FFE5F03EFEE433C98DF0A42EFEE5F039D5
:1000E000CD8AF0A42FFFE5F03EFEE43DFD33D0E0E5
:1000F000FB50070BBB000F0201BDEC2CFCEF33FFE4
:10010000EE33FEED33FD02019575F020800E75F0A3
:1001100010800575F0087D007E007F003392D53099
:10012000D50312024AEC334010EF33FFEE33FEEDFD
:1001300033FDEC33FCD5F0ED22E5F0247EA2D5139F
:10014000CC92E7CDCEFF22EDD2E7CD33EC3392D582
:1001500024814006E4FFFEFDFC22FCE4CFCECDCCA2
:1001600024E0501174FF80EDC3CC13CCCD13CDCE61
:1001700013CECF13CF0470F030D5DE02024AE9D29D
:10018000E7C933E833F892D5EDD2E7CD33EC33FC51
:100190005002B2D522EC30E7100FBF000C0EBE00AB
:1001A000080DBD00040BEB6014A2D5EB13FCED921F
:1001B000E7FD2274FFFCFDFEFF22E480F8A2D57467
:1001C000FF13FC7D80E480EFBB010CE58229F58202
:1001D000E5833AF583E0225006E92582F8E622BB62
:1001E000FE06E92582F8E222E58229F582E5833AD6
:1001F000F583E49322BC000BBE0029EF8DF084FF51
:10020000ADF022E4CCF875F008EF2FFFEE33FEECF2
:1002100033FCEE9DEC984005FCEE9DFE0FD5F0E919
:10022000E4CEFD22EDF8F5F0EE8420D21CFEADF018
:1002300075F008EF2FFFED33FD4007985006D5F01D
:10024000F222C398FD0FD5F0EA22C3E49FFFE49E9B
:10025000FEE49DFDE49CFC2212034B7BFF7A0479B3
:100260003C7D017F011203C37BFF7A0479447D0842
:100270007F011203C31204178F08E50875F0648428
:100280002430FB7D017F02120400E50875F00A842A
:1002900075F00A84E5F02430FB7D027F0212040031
:1002A000E50875F00A84E5F02430FB7D037F021237
:1002B0000400AC08E41201137B487AE1799C784190
:1002C0001200031201478E098F0A7C037DE8120198
:1002D000F5EF2430FB7D087F021204007B2E7D09A0
:1002E0007F02120400AE09AF0A7C037DE81201F51B
:1002F0007E007F64CFCDCFCECCCE1201F5EF24307F
:10030000FB7D0A7F02120400AE09AF0A7C007D6407
:100310001201F57E007F0ACFCDCFCECCCE1201F5F3
:10032000EF2430FB7D0B7F02120400AE09AF0A7C84
:10033000007D0A1201F5ED2430FB7D0C7F021204D2
:10034000007F2C7E011203A30202757F147E00122F
:1003500003A37F301203E27F057E001203A37F30E8
:100360001203E27F017E001203A37F301203E27FBB
:10037000381203E27F011203E27F0C0203E28B0ECC
:100380008A0F8910E4FEAB0EAA0FA9108E82758326
:10039000001201C8FFFD3395E04D60061204330ED4
:1003A00080E422E4FDFCC3ED9FEC9E5015E4FBFAD3
:1003B0000BBB00010AEB647B4A70F50DBD00010C1C
:1003C00080E4228B0B8A0C890DEF64017FC07002E0
:1003D0007F80EF2D14FF1203E2AB0BAA0CA90D02D4
:1003E000037EC2A08FB0C2A1D2A1D3EF94027480C9
:1003F000948050047F0280027F017E001203A322BA
:100400008B0BEF64017FC070027F80EF2D14FF1211
:1004100003E2AF0B020433C2A2C2A4D2A420A5FD02
:10042000C2A3AF90D2A322787FE4F6D8FD758110E5
:10043000020258D2A08FB0C2A1D2A1224769615452
:0D04400072693A00566F6C746167653A008E
:00000001FF
