:03001600D28E2265
:0302A500C28E22E4
:1001AF00D2A075890F758910D2ABD2AF8E0E8F0F7B
:1001BF00E50EC313F50AE50F13F50BC3E50F950B0A
:1001CF00F50DE50E950AF50CAE0AAF0BAB07AA06B7
:1001DF00E4C39BFFE49AFE74019400FDE49400FCD9
:1001EF0078081200EC8F10E4C39BFFE48F11AE0C64
:1001FF00AF0DAB07AA06C39BFFE49AFE74019400F0
:10020F00FDE49400FC78081200EC8F08E4C39BFF18
:09021F008F0985108D85118B22D9
:10012D00EFFD7C007005C2A0C2AB22ED64644C7083
:10013D0005D2A0C2AB22AC0EAD0F7E00120100E4C1
:10014D007B64FAF9F812005A8E0A8F0BC3E50F95EE
:10015D000BF50DE50E950AF50CAB07AA06E4C39B4E
:10016D00FFE49AFE74019400FDE49400FC780812FB
:10017D0000EC8F10E4C39BFFE48F11AE0CAF0DAB01
:10018D0007AA06C39BFFE49AFE74019400FDE49454
:10019D0000FC78081200EC8F08E4C39BFF8F09D296
:0201AD00AB2283
:10022800E4F512F5137F107E271201AFAF13120108
:100238002D120016AF127E00EF701720902C740A52
:100248002513F5133090FDE5136464701D751201D4
:100258008018EF64014E701220900F74F62513F584
:10026800133090FDE5137002F512AF1312012D80C3
:01027800C3C2
:03001B00020003DD
:10000300B2A020A00785088D85098B3285108D85C8
:03001300118B321C
:10027900E4FDFCC3ED9FEC9E5015E4FBFA0BBB00BB
:0F028900010AEB647B4A70F50DBD00010C80E4A7
:010298002243
:0300000002029960
:0C029900787FE4F6D8FD7581130202287E
:10001E0075F008758200EF2FFFEE33FECD33CDCC99
:10002E0033CCC58233C5829BED9AEC99E58298401C
:10003E000CF582EE9BFEED9AFDEC99FC0FD5F0D6F9
:10004E00E4CEFBE4CDFAE4CCF9A88222B800C1B923
:10005E000059BA002DEC8BF084CFCECDFCE5F0CB61
:10006E00F97818EF2FFFEE33FEED33FDEC33FCEB9A
:10007E0033FB10D703994004EB99FB0FD8E5E4F955
:10008E00FA227818EF2FFFEE33FEED33FDEC33FC42
:10009E00C933C910D7059BE99A4007EC9BFCE99A36
:1000AE00F90FD8E0E4C9FAE4CCFB2275F010EF2F7B
:1000BE00FFEE33FEED33FDCC33CCC833C810D7077B
:1000CE009BEC9AE899400AED9BFDEC9AFCE899F8B6
:0E00DE000FD5F0DAE4CDFBE4CCFAE4C8F92249
:1000EC00E86010ECA2E713FCED13FDEE13FEEF132A
:0400FC00FFD8F02217
:10010000EC8EF0A4CCC5F0CCCDF8EFA4CEC5F02D8C
:10011000FDE43CFCE8A42EC8C5F03DFDE43CFCEF4A
:0D012000A4FFE5F028FEE43DFDE43CFC22D8
:00000001FF
