:10000600D2A8D2AFC288E4F508C3E5089408748084
:100016009480501AAF08A8077401088002C333D829
:10002600FC42A07FC87E001200C9050880DBE4F50B
:1000360008C3E508940A74809480501875A0AA7FB6
:10004600C87E001200C975A0557FC87E001200C97F
:10005600050880DDE4F508C3E508940974809480FA
:1000660050A4AF08A8077407088002C333D8FCF56C
:0C007600A07FC87E001200C9050880DBD6
:0300030002008276
:10008200C0E0C0F0C083C082C0D075D000C000C044
:1000920001C002C003C004C005C006C007C290C2AE
:1000A200807F887E131200C9D290D280D007D006FA
:1000B200D005D004D003D002D001D000D0D0D0825D
:0700C200D083D0F0D0E03242
:1000C900E4FDFCC3ED9FEC9E5015E4FBFA0BBB006D
:0F00D900010AEB647B4A70F50DBD00010C80E459
:0100E80022F5
:030000000200E912
:0C00E900787FE4F6D8FD7581080200065F
:00000001FF
