:03000300010805EC
:10009A005389F0438901758C3C758AB0D2A9D2AFD5
:1000AA00D28CE4F590F509C3E5099409748094802B
:1000BA0050F0AF09A8077401088002C333D8FC4284
:0C00CA00907FC87E001200D6050980DB84
:03000B000200F6FA
:1000F600C0E0758C3C758AB01508E5087005750872
:0601060005B2A0D0E032BA
:1000D600E4FDFCC3ED9FEC9E5015E4FBFA0BBB0060
:0F00E600010AEB647B4A70F50DBD00010C80E44C
:0100F50022E8
:0300000002000EED
:0C000E00787FE4F6D8FD758109020055EA
:10001A0002009AE493A3F8E493A34003F68001F262
:10002A0008DFF48029E493A3F85407240CC8C333E7
:10003A00C4540F4420C8834004F456800146F6DFB6
:10004A00E4800B0102040810204080900003E47E43
:10005A00019360BCA3FF543F30E509541FFEE493AB
:10006A00A360010ECF54C025E060A840B8E493A372
:10007A00FAE493A3F8E493A3C8C582C8CAC583CA9D
:10008A00F0A3C8C582C8CAC583CADFE9DEE780BE55
:0100060000F9
:00000001FF
