:0A03E00054203D200066203D20005F
:1000030012030B7BFF7A0379E07D017F0112035C0E
:100013007BFF7A0379E57D017F0212035C5389F04C
:10002300438909E4F58CF58A20B2FD30B2FDD28C08
:1000330020B2FDC28CAF8C7508008F09E5097509E4
:1000430000F508AF8AEF4209E50925E0F509E5085F
:1000530033F508FEAF097C277D101201A4EF24308D
:10006300FB7D057F011203BBAE08AF097C277D1022
:100073001201A47E037FE8CFCDCFCECCCE1201A454
:10008300EF2430FF1203EAAE08AF097C037DE812C8
:1000930001A47E007F64CFCDCFCECCCE1201A4EFDE
:1000A3002430FF1203EAAE08AF097C007D6412011D
:1000B300A47E007F0ACFCDCFCECCCE1201A4EF24F5
:1000C30030FF1203EAAE08AF097C007D0A1201A4D7
:1000D300ED2430FF1203EAAE08AF09AB07AA06E42A
:1000E300F9F87F407E427D0FFC1202C78E0A8F0B08
:1000F3007C277D101201A4EF2430FB7D057F0212C3
:1001030003BBAE0AAF0B7C277D101201A47E037FD5
:10011300E8CFCDCFCECCCE1201A4EF2430FF120313
:10012300EAAE0AAF0B7C037DE81201A47E007F6474
:10013300CFCDCFCECCCE1201A4EF2430FF1203EAF1
:10014300AE0AAF0B7C007D641201A47E007F0ACF50
:10015300CDCFCECCCE1201A4EF2430FF1203EAAEF2
:100163000AAF0B7C007D0A1201A4ED2430FF1203B9
:04017300EA02002676
:10037D00E4FDFCC3ED9FEC9E5015E4FBFA0BBB00B6
:0F038D00010AEB647B4A70F50DBD00010C80E4A2
:01039C00223E
:10039D00C2A08F80C2A1D2A1D3EF940274809480A9
:0E03AD0050047F0280027F017E0012037D2239
:0903EA00D2A08F80C2A1D2A12291
:0203BB008B0CA9
:1003BD00EF640170047F8080027FC0EF2D14FF1267
:0703CD00039DAF0C0203EADF
:060337008B0F8A108911F2
:10033D00E4FEAB0FAA10A9118E827583001201770E
:0E034D00FFFD3395E04D60061203EA0E80E4DA
:01035B00227F
:06035C008B0C8A0D890ED6
:10036200EF640170047F8080027FC0EF2D14FF12C2
:0B037200039DAB0CAA0DA90E0203377F
:10030B007F3012039D7F057E0012037D7F30120329
:10031B009D7F017E0012037D7F3012039D7F38127B
:0C032B00039D7F0112039D7F0C02039DC7
:030000000203D424
:0C03D400787FE4F6D8FD7581110200036B
:10017700BB010CE58229F582E5833AF583E022503D
:1001870006E92582F8E622BBFE06E92582F8E22287
:0D019700E58229F582E5833AF583E49322A1
:1001A400BC000BBE0029EF8DF084FFADF022E4CC3F
:1001B400F875F008EF2FFFEE33FEEC33FCEE9DEC08
:1001C400984005FCEE9DFE0FD5F0E9E4CEFD22ED4E
:1001D400F8F5F0EE8420D21CFEADF075F008EF2F98
:1001E400FFED33FD4007985006D5F0F222C398FD89
:0501F4000FD5F0EA2226
:1002C700C2D5E830E70FB2D5E4C39BFBE49AFAE462
:1002D70099F9E498F8EC30E717B2D51202FD12024B
:1002E70035E4C39BFBE49AFAE499F9E498F88003B0
:1002F70012023530D50DE4C39FFFE49EFEE49DFD59
:04030700E49CFC2254
:1001F90075F008758200EF2FFFEE33FECD33CDCCBD
:1002090033CCC58233C5829BED9AEC99E58298403F
:100219000CF582EE9BFEED9AFDEC99FC0FD5F0D61C
:10022900E4CEFBE4CDFAE4CCF9A88222B800C1B946
:100239000059BA002DEC8BF084CFCECDFCE5F0CB84
:10024900F97818EF2FFFEE33FEED33FDEC33FCEBBD
:1002590033FB10D703994004EB99FB0FD8E5E4F978
:10026900FA227818EF2FFFEE33FEED33FDEC33FC65
:10027900C933C910D7059BE99A4007EC9BFCE99A59
:10028900F90FD8E0E4C9FAE4CCFB2275F010EF2F9E
:10029900FFEE33FEED33FDCC33CCC833C810D7079E
:1002A9009BEC9AE899400AED9BFDEC9AFCE899F8D9
:0E02B9000FD5F0DAE4CDFBE4CCFAE4C8F9226C
:00000001FF
