:0A011A003F065B4F666D7D077F6FA7
:07000300E4F508F509F50A18
:10000A00E4F50DF50EE50875F00A8485F00CE508AF
:10001A0075F00A84F50BC2B090011A93F4F5A07F2B
:10002A00017E001200EED2B0C2B1E50C90011A9323
:10003A00F4F5A07F017E001200EED2B1E50A75F058
:10004A000A8485F00CE50A75F00A84F50BC2B290B1
:10005A00011A93F4F5A07F017E001200EED2B2C21B
:10006A00B3E50C90011A93F4F5A07F017E0012000B
:10007A00EED2B3E50975F00A8485F00CE50975F04E
:10008A000A84F50BC2B490011A93F4F5A07F017E9D
:10009A00001200EED2B4C2B5E50C90011A93F4F541
:1000AA00A07F017E001200EED2B5050EE50E7002A9
:1000BA00050DC3941EE50D9400500302000F0509B7
:1000CA00E509643C600302000AF509050AE50A64C9
:1000DA003C600302000AF50A0508E5086418600393
:0300EA0002000A07
:0100ED0022F0
:1000EE00E4FDFCC3ED9FEC9E5015E4FBFA0BBB0048
:0F00FE00010AEB647B4A70F50DBD00010C80E434
:01010D0022CF
:0300000002010EEC
:0C010E00787FE4F6D8FD75810E02000336
:00000001FF
