:100000000208410208751208701208251206747D54
:10001000107F071207BBD28AD2AAD2AF752F007504
:100020003000753122753200753300753423753513
:10003000007536007537247B007A0079211204C3DD
:10004000E52175F00A842430FB7D057F011207EC61
:10005000E52175F00A84E5F02430FF1208157F3A97
:10006000120815E52275F00A842430FF120815E500
:100070002275F00A84E5F02430FF1208157F3A1249
:100080000815E52375F00A842430FF120815E523CE
:1000900075F00A84E5F02430FF120815752F0075FD
:1000A000300075312675320075330075342775358B
:1000B000007536007537287B007A0079251205A572
:1000C00020B0030201527BFF7A1179F27D017F0299
:1000D00012077EE52575F003A4240AF582E43412A4
:1000E000F583E493FB740193FA740293F97D027F24
:1000F0000212077E7F20120815E52675F00A842477
:1001000030FF120815E52675F00A84E5F02430FF6B
:100110001208157F2F120815E52775F00A84243080
:10012000FF120815E52775F00A84E5F02430FF1268
:1001300008157BFF7A12790312075EE52875F00A2D
:10014000842430FF120815E52875F00A84E5F002D2
:100150000242752F007530007531297532007533F4
:100160000075342A75350075360075372BAB28AD10
:1001700027AF2612024E7BFF7A1279077D017F029C
:1001800012077E7F3A120815E52975F00A8424309B
:10019000FF120815E52975F00A84E5F02430FF12F6
:1001A00008157F2F120815E52A75F00A842430FF00
:1001B000120815E52A75F00A84E5F02430FF1208CC
:1001C000157F2F120815AF2BEF3395E0FEEF24D0EB
:1001D000FFEE3407FE7C037DE812048DEF2430FF30
:1001E000120815AF2BEF3395E0FEEF24D0FFEE346D
:1001F00007FE7C007D6412048D7C007D0A12048D54
:10020000ED2430FF120815AF2BEF3395E0FEEF24FD
:10021000D0FFEE3407FE7C007D0A12048D7C007D49
:100220000A12048DED2430FF120815AF2BEF339521
:10023000E0FEEF24D0FFEE3407FE7C007D0A1204BE
:100240008DED2430FF12081543870102001C8F2C0E
:100250008D2D8B2EE52E75F00CA47C002DFFEC353A
:10026000F0FEEF25E0FDEE33FC74742DF58274088A
:100270003CF583E493F53C740193F53DE53D541F53
:10028000F538AE3CAF3DEF7805CEC313CE13D8F9A9
:10029000540FF539AE3CAF3DEEC3135401241DF5A8
:1002A0003AAE3CAF3DEE13135401F53B74762DF599
:1002B0008274083CF583E493F53C740193F53DE5C5
:1002C0003D541FFDAE3CAF3DEF7805CEC313CE13BA
:1002D000D8F9540FFFE538653A7068AE05ED640251
:1002E0007061E52CFD7C006401700DAB2FAA30A974
:1002F00031E538120404802AED641F4C7014AB2FD2
:10030000AA30A93104120404AB32AA33A934EF0293
:100310000394E52C14AB2FAA30A931120404E53B59
:10032000600AAB32AA33A934E5398068E539640C38
:1003300070047F018004E53904FFAB32AA33A9348D
:10034000EF8051E52C253814AB2FAA30A9311204C7
:1003500004AB2FAA30A9311203BEFFD3953A500A3D
:10036000AB32AA33A934E539802AAB2FAA30A931A0
:10037000C3EF953A120404E53904C3953BAB32AAA6
:1003800033A934120404AB32AA33A9341203BE6475
:100390000D700404120404AB32AA33A9341203BE54
:1003A000FFE52DC39F400AAB35AA36A937E52E805D
:1003B00009E52E14AB35AA36A93712040422BB0175
:1003C0000689828A83E0225002E722BBFE02E322F2
:1003D00089828A83E49322BB010CE58229F582E5B8
:1003E000833AF583E0225006E92582F8E622BBFE37
:1003F00006E92582F8E222E58229F582E5833AF5CD
:1004000083E49322BB010689828A83F0225002F79B
:1004100022BBFE01F322F8BB010DE58229F582E53E
:10042000833AF583E8F0225006E92582C8F622BB1C
:10043000FE05E92582C8F222BC000BBE0029EF8D23
:10044000F084FFADF022E4CCF875F008EF2FFFEE5A
:1004500033FEEC33FCEE9DEC984005FCEE9DFE0F68
:10046000D5F0E9E4CEFD22EDF8F5F0EE8420D21CC3
:10047000FEADF075F008EF2FFFED33FD400798500B
:1004800006D5F0F222C398FD0FD5F0EA22C2D5ECD2
:1004900030E709B2D5E4C39DFDE49CFCEE30E715DE
:1004A000B2D5E4C39FFFE49EFE120438C3E49DFD71
:1004B000E49CFC800312043830D507C3E49FFFE4BA
:1004C0009EFE228B2C8A2D892E1208547FD0120773
:1004D0009DE4FF12079D1208547FD112079DD2019F
:1004E0001206D08F3AD2011206D08F39C2011206FD
:1004F000D08F38120869533A7FE53AC4540F75F02B
:100500000AA4FFE53A540F2FAB32AA33A9341204E0
:100510000453397FE539C4540F75F00AA4FFE53957
:10052000540F2FAB2FAA30A931120404E53830E65E
:1005300033AB35AA36A937740C120404E53830E51C
:1005400004D2008002C20053381FE538C4540F752E
:10055000F00AA4FFE538540F2FAB2CAA2DA92E12B8
:100560000404803EAB35AA36A9377418120404532C
:10057000383FE538C4540F75F00AA4FFE538540F2E
:100580002FAB2CAA2DA92E120404AB2CAA2DA92E18
:100590001203BEC3940C748094805004C200800285
:1005A000D200A200228B2C8A2D892E1208547FD0D3
:1005B00012079D7F0312079D1208547FD112079DD9
:1005C000D2011206D0AB2CAA2DA92EEF120404D210
:1005D000011206D0AB2FAA30A931EF120404D201C8
:1005E0001206D0AB32AA33A934EF120404C20112AE
:1005F00006D0AB35AA36A937EF120404120869AB4E
:100600002CAA2DA92E1203BE5407120404AB2FAA44
:1006100030A9311203BE543F120404AB2FAA30A9F3
:10062000311203BEFFC4540F75F00AA4FEEF540F3D
:100630002E120404AB32AA33A9341203BE541F1283
:100640000404AB32AA33A9341203BEFFC4540F759D
:10065000F00AA4FEEF540F2E120404AB35AA36A9FB
:10066000371203BEFFC4540F75F00AA4FEEF540FF7
:100670002E020404C2A0C2A27F147E0012071E7FB5
:10068000031207DBD2A2C2A27F057E0012071E7FE3
:10069000031207DBD2A2C2A27F6412084D7F0312AD
:1006A00007DBD2A2C2A27F017E0012071E7F0212C8
:1006B00007DBD2A2C2A21F7E0012071E7F281207EC
:1006C0003E7F0C12073E7F0112073E7F0602073E67
:1006D000E4FFFEEEC39408748094805013D291D24C
:1006E00090EF25E0FF309103430701C2900E80E3B5
:1006F00030010302085B120862228F2C1208547F1B
:10070000D012079DAF2C12079D1208547FD11207FB
:100710009DC2011206D08F2D120869AF2D22E4FD73
:10072000FCC3ED9FEC9E5015E4FBFA0BBB00010AE5
:10073000EB647B4A70F50DBD00010C80E422AE072E
:10074000C2A01207D4D2A2C2A2EF24FE600304709A
:10075000077F027E0002071E7F2512084D228B2F85
:100760008A308931E4FDAB2FAA30A9318D8275839F
:10077000001203D7FF60061208150D80E9228B2CAA
:100780008A2D892EEF64017FC070027F80ED142FC7
:10079000FF12073EAB2CAA2DA92E02075EE4FEEE47
:1007A000C3940874809480500FEF339291D290C21A
:1007B00090EF25E0FF0E80E70208348F2C8D2D127C
:1007C00008547FD012079DAF2C12079DAF2D120742
:1007D0009D020869120803D2A2C2A2EFA2E392A767
:1007E000A2E292A6A2E192A51392A4228B2CEF641E
:1007F000017FC070027F80ED142FFF12073EAF2CE7
:10080000020815EF3392A7EFA2E692A6A2E592A501
:10081000A2E492A422AE07D2A01207D4D2A2C2A20E
:100820007F2902084DE4FF1206FAAD0753057FE465
:10083000FF0207BBD291D290A2919201C290A20175
:1008400022787FE4F6D8FD75813D020006AE071FD1
:10085000EE70FA22D290C291C29022C291D290C27E
:100860009022D291D290C29022C291D290D2912263
:10087000D290D29122321B79099A1A3A125B187BD4
:10088000109D1ABE18E21304192413461B6619871B
:1008900002291A4710681A89108A1AAB18CC10EE70
:1008A0001B0F11301B51197203941A321253187313
:1008B000129518B51AD710F81919133B195B1B7D3F
:1008C00000211A3D125E188112A218C21AE4110505
:1008D0001926134819681B8A082B1A4B104C1A6DDD
:1008E000128E18AE1AD010F11B1211331B54197549
:1008F0000397183512571877129918B91ADB12FC9A
:10090000191C133E196119820224184212641884BA
:1009100010A61AC71AE810E91B0A132B194B1B6DF6
:10092000018E1A2D104E1A6F109018B11AD310F4B0
:100930001B1513361B5619770B991A381059187A4C
:10094000129C18BC18E111021B2311441B651B8665
:10095000022718451267188712A918A918CB12ED9B
:10096000190D132F194F1B7103921A3010511A725F
:1009700010931AB418D510F71B1811391B5A197B8C
:10098000039D1A3B105C1A7D129E18C118E21104D7
:100990001B2511461B6719880A2A1849126B1A8BE6
:1009A000108C1AAD18CE12F01910133219521B7494
:1009B00001951A3410551A7610971AB81AD910FAE8
:1009C0001B1B113C1B5D19810022184110621A8308
:1009D00010A41AC518E613081B2811291B4A196B05
:1009E000038D182B124D186D108F1AB018D112F3F9
:1009F0001B13133419541B7609971A3710581A7998
:100A0000109A18BB1ADD11011B2111421B631B84B4
:100A100000251A4410651A8610A718C81ACA10EBC8
:100A20001B0C112D1B4E1B6F0390182E12501870AB
:100A3000129218B218D412F6191611381B591B7AD3
:100A4000039B1839125B1A7B109C1ABD18E1130323
:100A5000192311451B661B8708281A4812691A8931
:100A6000108A1AAB18CC10EE1B0F113019511B73E2
:100A70000394183212541A7410951AB618D712F932
:100A80001919133B195B1B7D00211A3D10611A8156
:100A900012A31AC318E413061926134819681B8AEF
:100AA000002B1A4A104B186C128E1AAE18CF12F186
:100AB0001B1111321B5319740B96183512571877E6
:100AC00010991ABA18DB12FD1B1D11411B61198206
:100AD000022418421264188410A61AC718C812EA11
:100AE000190A132C1B4C1B6D018E1A2D104E1A6FF8
:100AF000109018B11AD310F4191513371B571B781F
:100B000001991A3812591879129B18BB18DD130174
:100B1000192213441B6419850A271A46126718877D
:100B200012A918A918CB12ED190D112F1B501B710A
:100B300001921A3112521872129418B41AD610F780
:100B40001B181139195A1B7C019D1A3C125D187D26
:100B500012A11AC11AE311041B2511461B6719883B
:100B6000002A1A49106A1A6B128C18AC1ACE12EFAE
:100B7000190F133119511B73099418341256187632
:100B8000129818B81ADA12FB191B133D1B5D198154
:100B9000002218411062188312A518C51AE711081F
:100BA0001B29134A1B6A196B038D182B124D186DE4
:100BB000108F1AB018D110F31B1413351B5519766A
:100BC00003981A3610571A78109918BA1ADC10FDC3
:100BD0001921134219621B840A251A4410651A86CA
:100BE00010A718C81ACA10EB190C132E194E1B7037
:100BF00003911A2F10501A71129218B218D412F6CB
:100C0000191611381B59197A039C1A3A105B1A7C71
:100C1000129D18BD1AE11303192311451B6619878C
:100C200002291A4710681A8912AA18AA1ACC10EDBC
:100C30001B0E112F19501B7209931A3310541A7579
:100C4000129618B61AD810F91B1A133B195B1B7DA4
:100C50000021183D12611A8210A31AC418E5130767
:100C60001B27134819681B8A002B1A4A104B186C53
:100C7000128E18AE1AD010F11B12133319531B75B4
:100C8000039618341256187610981AB918DA10FC10
:100C90001B1D133E19611B820A231842126418841B
:100CA00010A61AC718E810EA1B0B112C1B4D1B6E5F
:100CB000038F1A2D104E1A6F109018B11AD310F41A
:100CC0001915133719571B79039A1A3810591A7ABC
:100CD000109B1ABC18DD13011922134419641B86DA
:100CE0000227184512671A8710A81AA918CA12EC09
:100CF000190C112E1B4F19700B92183112531A73C5
:100D000010941AB51AD610F71B181139195A1B7CF2
:100D1000019D1A3C105D1A7E12A21AC218E3130537
:100D2000192513471B671988002A1A49106A1A6B7C
:100D3000108C1AAD18CE12F01B1011311B521B7300
:100D40000194183312551875129718B718D912FB59
:100D50001B1B113C1B5D1B7E0A211841106218836E
:100D600012A518C518E713091909132B1B4B1B6C87
:100D7000018D1A2C124D186D108F1AB018D110F366
:100D80001B1411351B561B77039818361258187808
:100D9000129A18BA1ADC10FD192111421B631B8428
:100DA00000251A441265188512A718C71AC910EA37
:100DB000190B132D194D1B6F09901A301251187110
:100DC00012931AB318D412F6191611381B59197A3E
:100DD000039C183A125C187C129E1ABE1AE2110388
:100DE0001B2411451B6619870229184712691889A7
:100DF000128B18AB1ACD12EE190E133019501B724C
:100E000001931A3210531A7410951AB618D712F9A2
:100E10001919133B1B5B197C0B9E183D12611A823A
:100E200010A318C41AE611071B2813491B69198A55
:100E3000022C1A4A106B186C128E18AE18D012F2CF
:100E4000191213341B541B7501961A351256187655
:100E500010981AB918DA10FC1B1D11411B611B8375
:100E600002241A4210631A8410A51AC618E710E962
:100E70001B0A112B1B4C196D0B8F1A2E124F186F5A
:100E8000129118B11AD310F41915133719571B7989
:100E9000019A1A39125A187A129C1ABC18DD1302D8
:100EA0001922134419641B8600271A4610671A88F2
:100EB00012A918A91ACB10EC1B0D112E1B4F19707B
:100EC0000392183012521872129418B41AD612F7EC
:100ED0001917133919591B7B099C1A3C105D1A7E8E
:100EE00010A21AC31AE411051B26134719671B89A0
:100EF000002A1A49106A1A8B108C18AD1ACF10F0FC
:100F00001B1113321B5219730395183312551875A0
:100F1000129718B718D912FB191B133D195D1B81C5
:100F200002221A3E1262188212A418C418E613088C
:100F30001908132A194A1B6C0B8D1A2C104D1A6EA6
:100F4000108F1AB018D110F31B14113519561B78D5
:100F500003991A3710581A79129A18BA1ADC10FD28
:100F60001921114219631B850226184412661A863C
:100F700010A71AC818C912EB190B132D194D1B6FA6
:100F800001901A2F10501A7110921AB31AD410F53A
:100F90001B1611371B5819790B9B183A125C187CD9
:100FA000129E18C118E213041B2411451B661987F1
:100FB0000229184712691889108B1AAC18CD12EF44
:100FC0001B0F11301B511B7201931A3210531A74EC
:100FD000109518B61AD810F91B1A113B1B5C1B7D13
:100FE000039E183C125E188110A218C31AE5110660
:100FF0001B2711481B691B8A0A2B184A126C186C94
:10100000128E18AE18D010F21B1311341B551B761C
:101010000397183512571A7710981AB918DA10FC76
:101020001B1D11411B621B8300241A431264188488
:1010300012A618C61AE810E91B0A112B194C1B6ED0
:10104000038F182D124F1A6F10901AB118D212F484
:101050001914133619561B7809991A39105A1A7B24
:10106000109C1ABD1ADE13021922134419641B8640
:10107000002718461268188812AA1AAA18CB12ED6F
:10108000190D132F1B4F19700392183010521A7339
:1010900010941AB518D612F81B1811391B5A1B7B5D
:1010A000019C1A3B105C1A7D10A11AC218E31305AB
:1010B000192513471B671B8808291A49106A1A8BC0
:1010C000108C18AD18CF12F1191113331B531B7468
:1010D00001951A3412551875129718B718D910FBC4
:1010E0001B1C113D1B5E1B8102231A4112621882D8
:1010F00012A418C418E613081908112A1B4B196CFE
:10110000038E1A2C124D186D128F18AF1AD110F2CF
:101110001B13113419551B7709981A38125918796D
:10112000129B1ABB18DC12FE1921114219631B8590
:1011300000261A4510661A8712A818C81ACA12EB98
:10114000190B132D194D1B6F0190182F1251187187
:10115000129318B31AD512F6191613381B581979A9
:10116000039B1839105B1A7C109D1ABE1AE21103FA
:101170001B2413451B6519860A281847126918890C
:10118000108B1AAC18CD10EF1B1013311B511972B4
:1011900003941A3210531A74109518B618D812FA0C
:1011A000191A133C1B5C197D02211A3D125E18812D
:1011B00010A218C318E513071927134919691B8BC7
:1011C000022C1A4A104B1A6C108D1AAE18CF10F15F
:1011D0001B1211331B5453554E004D4F4E005455A6
:1011E0004500574544005448550046524900534174
:1011F00054002020202020202020202020202020DB
:101200002020002F3230004C756E617200FF11D625
:10121000FF11DAFF11DEFF11E2FF11E6FF11EAFF15
:0212200011EECD
:00000001FF
