:0D027E004E68696E20636F6E20636163003F
:10013F0078087C007D007BFF7A02797E7E007F0D40
:10014F001200D312019B7B007A007908120269C357
:10015F0074109FFFE49EC313EF1304FD7B007A001E
:07016F0079087F011201EC89
:10017600E4F515C3E51594107480948050107F2C17
:100186007E0112020D7F1812022D051580E57F02F1
:0301960012022D25
:0201990080DB09
:10020D00E4FDFCC3ED9FEC9E5015E4FBFA0BBB0027
:0F021D00010AEB647B4A70F50DBD00010C80E413
:01022C0022AF
:10022D00C2A08FB0C2A1D2A1D3EF940274809480EA
:0E023D0050047F0280027F017E0012020D221B
:09029700D2A08FB0C2A1D2A122B5
:04024B008F1C8B1D5C
:10024F00E51E640170047F8080027FC0EF2D14F5DE
:0A025F001EFF12022DAF1D020297D0
:0601C7008B198A1A891B46
:1001CD00E4FEAB19AA1AA91B8E827583001200F9E1
:0E01DD00FFFD3395E04D60061202970E80E4A0
:0101EB0022F1
:0601EC008B168A1789182A
:1001F200EF640170047F8080027FC0EF2D14FF1234
:0B020200022DAB16AA17A9180201C7B5
:10019B007F3012022D7F057E0012020D7F3012027E
:1001AB002D7F017E0012020D7F3012022D7F38123F
:0C01BB00022D7F0112022D7F0C02022D8C
:0300000002028B6E
:0C028B00787FE4F6D8FD75811E02013F6B
:10000300E709F608DFFA8046E709F208DFFA803EDF
:1000130088828C83E709F0A3DFFA8032E309F608CC
:10002300DFFA8078E309F208DFFA807088828C8334
:10003300E309F0A3DFFA806489828A83E0A3F608E8
:10004300DFFA805889828A83E0A3F208DFFA804CC2
:1000530080D280FA80C680D4806980F28033801099
:1000630080A680EA809A80A880DA80E280CA803302
:1000730089828A83ECFAE493A3C8C582C8CCC5837A
:10008300CCF0A3C8C582C8CCC583CCDFE9DEE7804A
:100093000D89828A83E493A3F608DFF9ECFAA9F0C9
:1000A300EDFB2289828A83ECFAE0A3C8C582C8CC1F
:1000B300C583CCF0A3C8C582C8CCC583CCDFEADE38
:1000C300E880DB89828A83E493A3F208DFF980CC9A
:1000D30088F0EF60010E4E60C388F0ED2402B40493
:1000E3000050B9F582EB2402B4040050AF2323453A
:0600F3008223900053730C
:1000F900BB010CE58229F582E5833AF583E02250BC
:1001090006E92582F8E622BBFE06E92582F8E22205
:0D011900E58229F582E5833AF583E493221F
:10026900E4FFFE120126600C0FEF70010E09E97020
:05027900F20A80EF22F3
:10012600BB010689828A83E0225002E722BBFE02D7
:09013600E32289828A83E493220A
:00000001FF
