:0A01AA003F065B4F666D7D077F6F17
:100003004389101200BBEF70FA7FCC12013D7F448D
:1000130012013D7FEE7E021200FF1200BBEF70FA69
:100023007FCC12013D7FBE12013D12011F750800F6
:100033008F0912011FEFFEEE4208E508C4F854F0E1
:10004300C8E509C4540F48FD75F00A84F9ED75F04D
:100053000A84ACF0E509540F75F00AA4FFE5F0C477
:10006300F854F0C8EFC4540F48FFE99001AA93F580
:0B00730080EC93F5A0EF93F5B08088BF
:1000BB00C2907FE07E0112007ED2907F467E0012BE
:1000CB00007EA290E433F50A7F9A7E0112007EAF88
:0100DB000A1A
:0100DC002201
:10016E00C2907F3C7E0012007ED2907F0A7E0002FB
:02017E00007E01
:10018000C2907F067E0012007ED2907F407E0002E9
:02019000007EEF
:0C019200EF6401700302018012016E2274
:1000DD00C2907F067E0012007ED2907F097E0012B4
:1000ED00007EA290E433F50B7F377E0012007EAFC9
:0100FD000BF7
:0100FE0022DF
:02013D008F0A27
:10013F00750B08AF0B150BEF6010E50A5401FF129A
:0A014F000192E50AC313F50A80E9E6
:010159002283
:10011F00750A08E4FFAE0A150AEE6011EFC313FF6C
:0D012F001200DDEFC43333335480FF80E84D
:01013C0022A0
:1000FF00E4FDFCC3ED9FEC9E5015E4FBFA0BBB0037
:0F010F00010AEB647B4A70F50DBD00010C80E422
:01011E0022BE
:10007E008E0C8F0D53890F438910AE0CAF0DAB074D
:10008E00AA06E4C39BFFE49AFE74019400FDE49477
:10009E0000FC780812015A8F8DAF0DAB07E4C39B9D
:0D00AE00FF8F8BD28E308FFDC28EC28F224D
:0300000002019E5C
:0C019E00787FE4F6D8FD75810D020003A7
:10015A00E86010ECA2E713FCED13FDEE13FEEF13BB
:04016A00FFD8F022A8
:00000001FF
