:1000C400E4FDFCC3ED9FEC9E5015E4FBFA0BBB0072
:0F00D400010AEB647B4A70F50DBD00010C80E45E
:0100E30022FA
:0A00FB003F065B4F666D7D077F6FC7
:10000300D2819000FEE493F5A09000FBE493F5B059
:100013007F2C7E011200C4750802C3748094804053
:1000230047750909C3748094804030D3E50994046B
:10003300748094805009E5087005208002C281E530
:10004300099000FB93F5B0E50893F5A07F2C7E01A2
:100053001200C4E5096004150980C9E5087005B2FA
:0800630080B28222150880B270
:01006B002272
:10006C009000FEE493F5A09000FBE493F5B0750AC4
:10007C001EC374809480403FD3E50A94037480942B
:10008C00805007208004C2818002D281E50A75F07D
:10009C000A849000FB93F5A0E50A75F00A84E5F05C
:1000AC0093F5B07F2C7E011200C4E50A7005B28274
:0700BC00B28022150A80BA90
:0100C300221A
:0B00F000C280D281D28212006C80FB23
:030000000200E417
:0C00E400787FE4F6D8FD75810A0200F078
:00000001FF
