:10000300120108E4F508C3E50894647480948050F1
:100013000DAF087E00AD08120042050880E8E4F544
:1000230008C3E50894647480948050F2E4FFFE12E0
:0F00330000D38F907FF47E01120095050880E2C4
:100042008E098F0A8D0BC2A37F06120073D2A3C240
:10005200A37F02120073E509FF120073AF0AE50ADB
:10006200120073AF0B120073D2A31200EBEF70FAFF
:01007200226B
:07010800D2A3D2A2C2A02283
:10007300E4FEEEC39408748094805015EF30E704D7
:10008300D2A18002C2A1D2A0C2A0EF25E0FF0E80C0
:01009300E18B
:010094002249
:1000B500E4FEEEC39408748094805011EF25E0FFB0
:0D00C500D2A030A203430701C2A00E80E5C7
:0100D200220B
:0400D300AD07AC06C3
:1000D700C2A37F03120073AF04120073AF051200AF
:0400E700730200B5EB
:1000EB00C2A37F051200731200B5D2A3EF5401FF18
:0100FB0022E2
:10009500E4FDFCC3ED9FEC9E5015E4FBFA0BBB00A1
:0F00A500010AEB647B4A70F50DBD00010C80E48D
:0100B4002229
:030000000200FCFF
:0C00FC00787FE4F6D8FD75810B0200034C
:00000001FF
