:100000000203FAEC4D6011E8497017ED33EC33044C
:10001000600DE4FCFFFEFD22E933E8330470F802D2
:1000200001B312017E58046009E4CC2481500628F3
:1000300050090201BD2840030201BAC0E0EB4A703A
:1000400044B98006D0E0FB0201A9EF4E701CBD80D0
:1000500008EBFFEAFEE9FD80EBE98DF0A4FEE5F098
:100060000200ECE9CDF9EAFEEBFFEF89F0A4FCE534
:10007000F0CE89F0A42EFFE435F0CD89F0A42DFE5A
:10008000E435F08067EF4E7005BD80D780C3EF8BFD
:10009000F0A4ACF0EE8BF0A42CFCE435F0F8EF8A81
:1000A000F0A42CE5F038FCE433CB8DF0A42CFCE577
:1000B000F03BF8EE8AF0A42CFCE5F038F8E433CFFE
:1000C00089F0A42CFCE5F038CF3400CE89F0A42FC1
:1000D000FFE5F03EFEE433C98DF0A42EFEE5F039D5
:1000E000CD8AF0A42FFFE5F03EFEE43DFD33D0E0E5
:1000F000FB50070BBB000F0201BDEC2CFCEF33FFE4
:10010000EE33FEED33FD02019575F020800E75F0A3
:1001100010800575F0087D007E007F003392D53099
:10012000D50312024AEC334010EF33FFEE33FEEDFD
:1001300033FDEC33FCD5F0ED22E5F0247EA2D5139F
:10014000CC92E7CDCEFF22EDD2E7CD33EC3392D582
:1001500024814006E4FFFEFDFC22FCE4CFCECDCCA2
:1001600024E0501174FF80EDC3CC13CCCD13CDCE61
:1001700013CECF13CF0470F030D5DE02024AE9D29D
:10018000E7C933E833F892D5EDD2E7CD33EC33FC51
:100190005002B2D522EC30E7100FBF000C0EBE00AB
:1001A000080DBD00040BEB6014A2D5EB13FCED921F
:1001B000E7FD2274FFFCFDFEFF22E480F8A2D57467
:1001C000FF13FC7D80E480EFBB010CE58229F58202
:1001D000E5833AF583E0225006E92582F8E622BB62
:1001E000FE06E92582F8E222E58229F582E5833AD6
:1001F000F583E49322BC000BBE0029EF8DF084FF51
:10020000ADF022E4CCF875F008EF2FFFEE33FEECF2
:1002100033FCEE9DEC984005FCEE9DFE0FD5F0E919
:10022000E4CEFD22EDF8F5F0EE8420D21CFEADF018
:1002300075F008EF2FFFED33FD4007985006D5F01D
:10024000F222C398FD0FD5F0EA22C3E49FFFE49E9B
:10025000FEE49DFDE49CFC221202FD1203DA8F08ED
:10026000AC08E4120113E4FBFA79FA783F120003B8
:100270001201478E098F0AE50875F064842430FB6B
:100280007D017F011203B1E50875F06484E5F07526
:10029000F00A842430FF1203EAE50875F00A84E5C9
:1002A000F02430FF1203EAAE09AF0A7C007D64122D
:1002B00001F5EF2430FB7D017F021203B17F2E1286
:1002C00003EAAE09AF0A7C007D641201F57E007F6F
:1002D0000ACFCDCFCECCCE1201F5EF2430FF1203E2
:1002E000EAAE09AF0A7C007D0A1201F5ED2430FF69
:1002F0001203EA7FF47E0112035902025BC290C22C
:10030000917F147E001203597F031203A0D291C281
:10031000917F057E001203597F031203A0D291C280
:10032000917F641204067F031203A0D291C2917FD1
:10033000017E001203597F021203A0D291C2911FC5
:100340007E001203597F281203797F0C1203797FF4
:10035000011203797F06020379E4FDFCC3ED9FECF3
:100360009E5015E4FBFA0BBB00010AEB647B4A705C
:10037000F50DBD00010C80E422AE07C29012039976
:10038000D291C291EF24FE60030470077F027E00C9
:100390000203597F25120406221203C8D291C2918A
:1003A000EFA2E39297A2E29296A2E1929513929421
:1003B000228B0BEF64017FC070027F80ED142FFF52
:1003C000120379AF0B0203EAEF339297EFA2E692A2
:1003D00096A2E59295A2E492942275A0FF30B00710
:1003E00015A0AFA0EF70F6AFA022AE07D290120317
:1003F00099D291C2917F29020406787FE4F6D8FD54
:0D04000075810B020258AE071FEE70FA2244
:00000001FF
