:0A0079003F065B4F666D7D077F6F49
:100003002090FD750809C3748094804017E508901B
:10001300007993F5A07FFA7E0012004DE508600495
:10002300150880E2C280E4F508C3E508940A7480E9
:1000330094805013E50890007993F5A07FFA7E0031
:0900430012004D050880E2D28094
:01004C002291
:10004D00E4FDFCC3ED9FEC9E5015E4FBFA0BBB00E9
:0F005D00010AEB647B4A70F50DBD00010C80E4D5
:01006C002271
:0300000002006D8E
:0C006D00787FE4F6D8FD758108020003DE
:00000001FF
