:10005E00E4F50AC3E50A940A7480948050147F0A6A
:10006E007E00120083209106E4F5A07F0122050A8E
:04007E0080E17F009E
:01008200225B
:1000A30075080AE4F5A063A0FF12005EEF7003D5A4
:0200B30008F44F
:0100B5002228
:10000300750905E4F5A0E4F5A0F508C3E50894082F
:10001300748094805019AF08A8077401088002C344
:1000230033D8FC42A012005EEF7004050880DCE4C4
:10003300F508C3E508940874809480501AAF08A8A3
:10004300077401088002C333D8FCF452A012005E87
:0A005300EF7004050880DBD509AC4E
:01005D002280
:1000B60075080A75A0AA63A0FF12005EEF7003D54B
:0200C60008F43C
:0100C8002215
:1000DC00E4F5A0FFEFC394087480948050030F8064
:0100EC00F320
:0100ED0022F0
:1000C900E4F5A020900C1200031200A31200B62040
:0300D90091F4227D
:10008300E4FDFCC3ED9FEC9E5015E4FBFA0BBB00B3
:0F009300010AEB647B4A70F50DBD00010C80E49F
:0100A200223B
:030000000200EE0D
:0C00EE00787FE4F6D8FD75810A0200C995
:00000001FF
