:10000300E4F5A0F508C3E508940874809480501AB9
:10001300AF08A8077480088002C313D8FC42A07FEE
:10002300647E00120111050880DBE4F508C3E508CE
:10003300940874809480501BAF08A80774800880CC
:1000430002C313D8FCF452A07F647E001201110591
:030053000880DA48
:010056002287
:10005700E4F5A0F508C3E508940874809480501A65
:10006700AF08A8077401088002C333D8FC42A07FF9
:10007700647E00120111050880DBE4F508C3E5087A
:10008700940874809480501BAF08A80774010880F7
:1000970002C333D8FCF452A07F647E00120111051D
:0300A7000880DAF4
:0100AA002233
:1000EA00E4F508C3E508940A74809480501875A052
:1000FA00AA7F647E0012011163A0FF7F647E001252
:06010A000111050880DD73
:0101100022CC
:1000AB00E4F508AF087E00C3EF9408748094805089
:1000BB002DE4F5A0AD08A8057405088002C333D85C
:1000CB00FC42A0EF64064E7002B2A0E50864077014
:0E00DB0002B2A17F647E00120111050880C5EB
:0100E90022F4
:0C0131001200031200571200EA0200AB9B
:10011100E4FDFCC3ED9FEC9E5015E4FBFA0BBB0024
:0F012100010AEB647B4A70F50DBD00010C80E410
:0101300022AC
:0300000002013DBD
:0C013D00787FE4F6D8FD758108020131DE
:00000001FF
