:0A02B0003F065B4F666D7D077F6F10
:04012600AB07AA0673
:10012A007C007D0A1200037C007D0A1200038D10F8
:10013A007C007D0AAF03AE021200038D117C007DA4
:10014A0064AF03AE021200037C007D0A1200038D25
:10015A000F7C037DE8AF03AE021200037C007D0A28
:10016A001200038D0E7C277D10AF03AE021200032E
:10017A007C007D0A1200038D0DAE02AF03E4FCFD84
:10018A007BA07A867901F812020F8F0CD2A5E511AD
:10019A009002B093F4F5807F017E00120284C2A51A
:1001AA00D2A4E5109002B093F4F5807F017E00128C
:1001BA000284C2A4D2A3E50F9002B093F4F5807F23
:1001CA00017E00120284C2A3D2A2E50E9002B0936D
:1001DA00F4F5807F017E00120284C2A2D2A1E50D4D
:1001EA009002B093F4F5807F017E00120284C2A1CE
:1001FA00D2A0E50C9002B093F4F5807F017E001244
:04020A000284C2A008
:01020E0022CD
:1002530053890F438950D28EE4F58BF58D858D0933
:10026300858B08E509B58DF5750A00F50BE50B756A
:100273000B00F50AE508420BAF0BAE0A120126800C
:01028300DC9E
:10028400E4FDFCC3ED9FEC9E5015E4FBFA0BBB00B0
:0F029400010AEB647B4A70F50DBD00010C80E49C
:0102A3002238
:030000000202A455
:0C02A400787FE4F6D8FD7581110202534A
:10000300BC000BBE0029EF8DF084FFADF022E4CCE1
:10001300F875F008EF2FFFEE33FEEC33FCEE9DECAA
:10002300984005FCEE9DFE0FD5F0E9E4CEFD22EDF0
:10003300F8F5F0EE8420D21CFEADF075F008EF2F3A
:10004300FFED33FD4007985006D5F0F222C398FD2B
:050053000FD5F0EA22C8
:10020F00C2D5E830E70FB2D5E4C39BFBE49AFAE41A
:10021F0099F9E498F8EC30E717B2D51202451200BD
:10022F0094E4C39BFBE49AFAE499F9E498F8800309
:10023F0012009430D50DE4C39FFFE49EFEE49DFDB4
:04024F00E49CFC220D
:1000580075F008758200EF2FFFEE33FECD33CDCC5F
:1000680033CCC58233C5829BED9AEC99E5829840E2
:100078000CF582EE9BFEED9AFDEC99FC0FD5F0D6BF
:10008800E4CEFBE4CDFAE4CCF9A88222B800C1B9E9
:100098000059BA002DEC8BF084CFCECDFCE5F0CB27
:1000A800F97818EF2FFFEE33FEED33FDEC33FCEB60
:1000B80033FB10D703994004EB99FB0FD8E5E4F91B
:1000C800FA227818EF2FFFEE33FEED33FDEC33FC08
:1000D800C933C910D7059BE99A4007EC9BFCE99AFC
:1000E800F90FD8E0E4C9FAE4CCFB2275F010EF2F41
:1000F800FFEE33FEED33FDCC33CCC833C810D70741
:100108009BEC9AE899400AED9BFDEC9AFCE899F87B
:0E0118000FD5F0DAE4CDFBE4CCFAE4C8F9220E
:00000001FF
