:10049D00E4FDFCC3ED9FEC9E5015E4FBFA0BBB0095
:0F04AD00010AEB64714A70F50DBD00010C80E48B
:0104BC00221D
:0B04C900416E68205472756F6E670072
:0604E400A298E433FF22A0
:0804D4003098FDC298AF992297
:0804DC003099FDC2998F9922AD
:060478008B1D8A1E891F86
:10047E00E4FEAB1DAA1EA91F8E8275830012035FB8
:0E048E00FFFD3395E04D60061204DC0E80E4A5
:01049C00223D
:1003ED0053980F43985353890F438920D28E758D9F
:1003FD00FD7BFF7A0479C9120065C2901204D4EF17
:10040D00B4080050F7900419F8282873020431023B
:10041D00043502043902043D02044102044502047C
:10042D004902044DB29080D4B29180D0B29280CC6A
:10043D00B29380C8B29480C4B29580C0B29680BC8D
:04044D00B29780B82A
:030000000204BD3A
:0C04BD00787FE4F6D8FD7581210203ED84
:10035F00BB010CE58229F582E5833AF583E0225053
:10036F0006E92582F8E622BBFE06E92582F8E2229D
:0D037F00E58229F582E5833AF583E49322B7
:10000300E518240CF8E60518227809300702780C65
:10001300E475F0011203B702038C2000EB7F2ED2AC
:10002300008018EF540F2490D43440D4FF30040BD5
:10003300EF24BFB41A0050032461FFE519600215D1
:1000430019051CE51C7002051B30070D7809E475C2
:10005300F0011203B7EF0203A50204517403D207A0
:100063008003E4C207F5188B098A0A890BE4F519A2
:10007300F51BF51CE51960077F2012003E80F5751E
:100083001AFFC201C200C202C203C205C206C208ED
:1000930012000CFF700D3007057F0012004FAF1CDC
:1000A300AE1B22B4255FC2D5C20412000CFF24D0BC
:1000B300B40A00501A75F00A781930D50508B6FF4E
:1000C3000106C6A426F620D5047002D20380D924E3
:1000D300CFB41A00EF5004C2E5D20402024FD2019A
:1000E30080C6D20080C0D20280BCD2D580BAD205ED
:1000F30080B47F2012003E2002077401B51900402E
:10010300F1120003FF12003E020077D208D20680EC
:1001130095120003FB120003FA120003F94A4B7015
:100123000679207A037BFF20022EE519602A7E00E0
:100133008E8275830012035F60060EEE651A70F0FF
:10014300C2D5EBC0E0EAC0E0E9C0E0EE120296D00F
:10015300E0F9D0E0FAD0E0FB12038CFF60AAEBC019
:10016300E0EAC0E0E9C0E012003ED0E02401F9D0AB
:10017300E03400FAD0E0FBE51A0460DCD51AD9803C
:10018300877BFF7A027992D202809C791080027970
:1001930008C206C2088008D2D5790A8004790AC247
:1001A300D5E51A047002F51AE4FAFDFEFF12000306
:1001B300FC7B08200113120003FD7B1030000A12A0
:1001C3000003FE120003FF7B20EC3382D592D5504F
:1001D30013C3E43000069FFFE49EFEE42001039D69
:1001E300FDE49CFCE4CBF8C201EC700CCFCECDCC8B
:1001F300E824F8F870F38017C3EF33FFEE33FEED16
:1002030033FDEC33FCEB33FB994002FB0FD8E9EBF6
:10021300300105F8D0E0C448B201C0E00AEC4D4E0D
:100223004F78207B0070C2EAB51A0040BCC0E012D0
:100233000298D0F0D0E0200104C4C0E0C4B201C0F1
:10024300F0120027D0F0D5F0EB0200771203C701BC
:100253001453018E5800E54C00E14201924F019A7C
:0F02630044019A4900FA4301A0550184460184E1
:100272004501844703405000E92D00ED2E01102B6B
:1002820000F123010E2003292A00A94800000108D9
:100292003F3F3F00790AA2D5200314300509B91067
:1002A200020404B9080104A2D52006025001042068
:1002B20002689202B519005034C0E07F2030031961
:1002C2007F30A20272067205500F1202EFC202C202
:1002D20006C205C2087F30800F300503E9C0E01274
:1002E200003E300503D0E0F9D0E0B519CC30051757
:1002F2007F30B9100C12003E7F583004077F78809F
:1003020003B9080312003E3002057F2D02003E7F32
:10031200202008F87F2B2006F322920280CF286E3D
:10032200756C6C2900D2011200033001F8C2017809
:100332001930D50108F60200A92D50434958120080
:10034200032403B405004001E490033B9312002F01
:0D035200743A12002FD20375190402018EB7
:10038C00BB010689828A83E0225002E722BBFE026F
:09039C00E32289828A83E49322A2
:1003A500BB010689828A83F0225002F722BBFE0137
:0203B500F32231
:1003B700FAE6FB0808E6F925F0F618E6CA3AF62247
:1003C700D083D082F8E4937012740193700DA3A3C5
:1003D70093F8740193F5828883E4737402936860D9
:0603E700EFA3A3A380DFD9
:10045100EFB40A07740D12045C740A309811A8995C
:10046100B8130CC2983098FDA899C298B811F6300B
:0704710099FDC299F59922E3
:00000001FF
