:100000000200A312008F7BFF7A0079C212006A12ED
:1000100000B7EF3395E04F60F61200BD8F0874E033
:100020002508F5087BFF7A0079D012006AAF081224
:1000300000AF7BFF7A0079D312006A80C9BB010C44
:10004000E58229F582E5833AF583E0225006E92529
:1000500082F8E622BBFE06E92582F8E222E5822943
:10006000F582E5833AF583E493228B098A0A890BAA
:10007000E4FEAB09AA0AA90B8E8275830012003D2B
:10008000FFFD3395E04D60061200AF0E80E422C202
:100090009FD29E53890F438920758DF4D28ED299B9
:1000A000D29C22787FE4F6D8FD75810B02000330E4
:1000B00099FDC2998F9922A298E433FF22C298AF8A
:1000C00099224E686170206B79207475203A200067
:0600D0002D3E000D0A00A8
:00000001FF
